S01F00002E2F67725F6275696C642F6B7572756D695F736B657463682E6D6F7410
S206000000F6C241
S21400000412BF1EBF2ABF36BF42BF4EBF74BF80BFDB
S214000014A6BFCCBFF2BF18C024C030C056C07CC038
S214000024A2C0C8C0EEC014C100003AC176C182C1E5
S2140000348EC1B4C1DAC100C2FFFFFFFFFFFF0CC2CE
S21400004432C258C27EC28AC296C2A2C2AEC2BAC265
S214000054C6C2FFFFFFFFFFFFFFFFD2C2FFFFDEC2E5
S214000064FFFFFFFFFFFFFFFFFFFFFFFFFFFFFFFF97
S210000074FFFFFFFFFFFFFFFFFFFFEAC2D9
S2080000C0EFFFE885DC
S20E0000C4000000000000000000002D
S2080000D8ECF6C2007B
S2140000DCEC326701EC18A801ECF09301ECD7940114
S2140000ECEC36AB01ECC76701EC719301EC5C940148
S2140000FC00000000000000000000000000000000EF
S21400010C00000000000000000000000000000000DE
S21400011C00000000000000000000000000000000CE
S21400012C00000000000000000000000000000000BE
S2140006AC0000000000000000ECBD6701ECC2670112
S2140006BC0000000000000000000000000000000029
S2140006CC0000000000000000000000000000000019
S2140006DC0000000000000000000000000000000009
S2140006ECEC99C601000000000000000000000000AD
S2140006FC00000000000000000000000000000000E9
S21400070C00000000000000000000000000000000D8
S21400071C00000000000000000000000000000000C8
S21400072C00000000000000000000000000000000B8
S21400073C00000000000000000000000000000000A8
S21400074C0000000000000000000000000000000098
S21400075C0000000000000000000000000000000088
S21400076C0000000000000000000000000000000078
S21400077C0000000000000000000000000000000068
S21400078C0000000000000000000000000000000058
S21400079C0000000000000000000000000000000048
S2140007AC0000000000000000000000000000000038
S2140007BC0000000000000000000000000000000028
S2140007CC0000000000000000000000000000000018
S2140007DC0000000000000000000000000000000008
S2140007EC00000000000000000000000000000000F8
S2140007FC00000000000000000000000000000000E8
S21400080C00000000000000000000000000000000D7
S21400081C00000000000000000000000000000000C7
S21400082C00000000000000000000000000000000B7
S21400083C00000000000000000000000000000000A7
S21400084C0000000000000000000000000000000097
S21400085C0000000000000000000000000000000087
S21400086C0000000000000000000000000000000077
S21400087C0000000000000000000000000000000067
S21400088C0000000000000000000000000000000057
S21400089C0000000000000000000000000000000047
S2140008AC0000000000000000000000000000000037
S2140008BC00000500180017001600FFFFFFFFFFFFE3
S2140008CC204EB3330000000000006400B833000074
S2140008DC000000006400C433000000000000640048
S2140008ECD0330000000000006400DF33000000007E
S2140008FC00006400EE330000000000006400F133DA
S21400090C0000000000006400153400000000000029
S21400091C64003F34000000000000640069340000EE
S21400092C0000000064007134000000000000640049
S21400093C79340000000000006400813400000000E0
S21400094C0000640091340000000000006400A33432
S21400095C000000000000E803000238B07DB0A6B02E
S21400096CABB0D8B0F3B00AB127B128B1AFB1EBB188
S21400097C02B219B230B247B200000000000000000C
S21400098CD9D4348666B0000010B24CB288B20000DF
S21400099C0000000000000000000000000000000046
S2140009AC0000000000000000000000003E460000B2
S2140009BC0000000000000000000000000000000026
S2140009CC0000000000000000000000000000000016
S2140009DC0000000000000000000000000000000006
S2140009EC00000000000000000000000000000000F6
S2140009FC01000000000000000E33CDAB34126DE693
S214000A0CECDE05000B0000000000000000000000FB
S214000A1C00000000000000000000000000000000C5
S214000A2C00000000000000000000000000000000B5
S214000A3C00000000000000000000000000000000A5
S214000A4C0000000000000000000000000000000095
S214000A5C0000000000000000000000000000000085
S214000A6C0000000000000000000000000000000075
S214000A7C0000000000000000000000000000000065
S214000A8C0000000000000000000000000000000055
S214000A9C0000000000000000000000000000000045
S214000AAC0000000000000000000000000000000035
S214000ABC0000000000000000000000000000000025
S214000ACC0000000000000000000000000000000015
S214000ADC0000000000000000000000000000000005
S214000AEC00000000000000000000000000000000F5
S214000AFC00000000000000000000000000000000E5
S214000B0C00000000000000000000000000000000D4
S214000B1C00000000000000000000000000000000C4
S214000B2C00000000000000000000000000000000B4
S214000B3C00000000000000000000000000000000A4
S214000B4C0000000000000000000000000000000094
S214000B5C0000000000000000000000000000000084
S214000B6C0000000000000000000000000000000074
S214000B7C0000000000000000000000000000000064
S214000B8C0000000000000000000000000000000054
S214000B9C0000000000000000000000000000000044
S214000BAC0000000000000000000000000000000034
S214000BBC0000000000000000000000000000000024
S214000BCC0000000000000000000000000000000014
S214000BDC0000000000000000000000000000000004
S214000BEC00000000000000000000000000000000F4
S214000BFC00000000000000000000000000000000E4
S214000C0CFFFF000000000000020000000000EAB237
S214000C1CEAB2EEB2EEB2F2B2F2B2F6B2F6B2FAB2A3
S214000C2CFAB2FEB2FEB202B302B306B306B30AB30E
S214000C3C0AB30EB30EB312B312B316B316B31AB37B
S214000C4C1AB31EB31EB322B322B326B326B32AB3EB
S214000C5C2AB32EB32EB332B332B336B336B33AB35B
S214000C6C3AB33EB33EB342B342B346B346B34AB3CB
S214000C7C4AB34EB34EB352B352B356B356B35AB33B
S214000C8C5AB35EB35EB362B362B366B366B36AB3AB
S214000C9C6AB36EB36EB372B372B376B376B37AB31B
S214000CAC7AB37EB37EB382B382B386B386B38AB38B
S214000CBC8AB38EB38EB392B392B396B396B39AB3FB
S214000CCC9AB39EB39EB3A2B3A2B3A6B3A6B3AAB36B
S214000CDCAAB3AEB3AEB3B2B3B2B3B6B3B6B3BAB3DB
S214000CECBAB3BEB3BEB3C2B3C2B3C6B3C6B3CAB34B
S214000CFCCAB3CEB3CEB3D2B3D2B3D6B3D6B3DAB3BB
S214000D0CDAB3DEB3DEB3E2B3E2B3E6B3E6B3EAB32A
S214000D1CEAB3EEB3EEB3F2B3F2B3F6B3F6B3FAB39A
S214000D2CFAB3FEB3FEB302B402B406B406B40AB405
S214000D3C0AB40EB40EB412B412B416B416B41AB472
S214000D4C1AB41EB41EB422B422B426B426B42AB4E2
S214000D5C2AB42EB42EB432B432B436B436B43AB452
S214000D6C3AB43EB43EB442B442B446B446B44AB4C2
S214000D7C4AB44EB44EB452B452B456B456B45AB432
S214000D8C5AB45EB45EB462B462B466B466B46AB4A2
S214000D9C6AB46EB46EB472B472B476B476B47AB412
S214000DAC7AB47EB47EB482B482B486B486B48AB482
S214000DBC8AB48EB48EB492B492B496B496B49AB4F2
S214000DCC9AB49EB49EB4A2B4A2B4A6B4A6B4AAB462
S214000DDCAAB4AEB4AEB4B2B4B2B4B6B4B6B4BAB4D2
S214000DECBAB4BEB4BEB4C2B4C2B4C6B4C6B4CAB442
S214000DFCCAB4CEB4CEB4D2B4D2B4D6B4D6B4DAB4B2
S214000E0CDAB4DEB4DEB4E2B4E2B4E6B4E6B441532B
S214000E1C43494900000000000000000000000000EC
S214000E2C000000000000000000000000000041531D
S214000E3C43494900000000000000000000000000CC
S214000E4C0000000000000000000000000000EE465D
S214000E5CED46ED46ED46ED46ED46ED46ED46ED46E9
S214000E6CED46FFFFFFFFFFFFFFFFFFFFFFFFFFFF4C
S20E000E7C0000000000000100E00086
S2140030000D0A47522D4B5552554D49207374617227
S21400301074000D0A004E554C4C000D0A2A2A2A2A26
S2140030202A2A2A2A2A205374617274696E67204DF0
S21400303061696E204C6F6F70202A2A2A2A2A2A2A53
S2140030402A2A006D61696E206C6F6F700065646778
S2140030506521206E6F6E65006564676521202573A7
S214003060006B4D656C6F6479436F6D6D616E644582
S214003070767445786369746564006B4D656C6F643F
S21400308079436F6D6D616E644576744669726564EA
S21400309000756E657870656474656421006B4469BC
S2140030A061676E6F7365526573756C74476F6F6496
S2140030B0006B446961676E6F7365526573756C74F7
S2140030C048696768006B446961676E6F736552652F
S2140030D073756C744C6F77003644DE303C31365373
S2140030E0747265616D00313448617264776172652F
S2140030F053657269616C00003644E630D8300000D3
S214003100F830B252AD5AED5157521352DF53744451
S2140031101231395072696E7461626C6500394950BB
S214003120416464726573730036441D310E310000CD
S2140031302831C959355072696E74000074443431B0
S21400314002030405060712130201E00021FF310006
S2140031504100510001FF0402E00021FF3100410060
S214003160510001FF0100E00023FF3300430053003D
S21400317003FF4006010021FF31004100510001FF1E
S2140031800201E00023FF33004300530003FF200545
S214003190020021FF31004100510001FF010007003D
S2140031A021FF31004100510001FF0100E00020FF37
S2140031B030004000500000FF0201E00020FF300019
S2140031C04000500000FF0803040021FF31004100CA
S2140031D0510001FF1004030021FF3100410051009F
S2140031E001FF0402E00027FF37004700570007FFF3
S2140031F00201E00027FF37004700570007FF0100E5
S214003200E00027FF37004700570007FF0402E000F2
S21400321022FF32004200520002FF0803E00022FFB5
S21400322032004200520002FF1004E00022FF32008B
S2140032304200520002FF2005E00022FF320042005A
S214003240520002FF4006E00022FF32004200520019
S21400325002FF8007E00022FF32004200520002FF19
S2140032608007E0002EFF3E004E005E000EFF0100CD
S214003270E0002CFF3C004C005C000CFF8007E000E8
S21400328021FF31004100510001FF0201E00025FF4F
S21400329035004500550005FF0100E00025FF35001C
S2140032A04500550005FF00303132333435363738A7
S2140032B0396162636465666768696A6B6C6D6E6FB8
S2140032C0707172737475767778797A0036536446BF
S2140032D0696C65003644CC323C310000D432D07C78
S2140032E0AD5A3754776F5769726500003644E2323C
S2140032F0D8300000EC32AB853E85D684ED84178549
S2140033003D85414F4B00455252005265626F6F74C7
S2140033100072656365697665643A00737563636514
S2140033207373006661696C00257320454E54002552
S21400333073204558540057562C303031422C3000FC
S2140033406761696E2073657420746F203100676151
S214003350696E2073657420746F2030007075726714
S214003360696E670070757267656400257320667203
S21400337065713D25642C206E6F74653D2564207351
S214003380656E74005355572C313233343536373822
S21400339039303132333435363738393031323334E8
S2140033A035363738393033332C00253034782530ED
S2140033B034780053462C310053522C32343030309F
S2140033C03030300053532C43303030303030310002
S2140033D0534E2C4B7572756D6954756E657200533D
S2140033E02D2C4B7572756D6954756E657200505A4A
S2140033F00050532C31323334353637383930313289
S2140034003334353637383930313233343536373869
S214003410393046460050432C31323334353637384F
S2140034203930313233343536373839303132333457
S21400343035363738393033332C31322C303400506F
S214003440432C313233343536373839303132333431
S2140034503536373839303132333435363738393017
S21400346033342C30362C3034005344462C302E3136
S214003470005344482C302E31005344522C302E3109
S2140034800053444D2C4B7572756D6954756E65729C
S2140034900053444E2C6F73616B616E617A61627586
S2140034A0756E00522C3100010B0D0F0002002E36F7
S2140034B005000300FA35070002002236030002006A
S2140034C0163603000200EA35040001004236080002
S2140034D009001A35010009001635010009001235E9
S2140034E001000700DE3503000700B2350B000100BF
S2140034F0A2350400010072350C0008006235040095
S21400350008004635070000003A35030000001E3567
S21400351007002400F4015100F4013100F40100001A
S214003520F4014100F4014100E8034600E8034800C6
S214003530E8034600E8034800A00F4B00F4014A00E9
S214003540E8034800F4014B00F4014E00A6004B00CF
S214003550A6004E00A6005200F4014600F4014B00FF
S214003560E8034B00E8034B00E8034900F40146007B
S214003570FA000000FA003C00FA004000FA0045009D
S214003580FA004700FA000000FA000000F40100000C
S214003590FA004000FA004400FA004700FA0048002B
S2140035A0F4010000FA004700FA004A00FA0048005A
S2140035B0FA000000FA004300FA004300FA00410057
S2140035C0FA003F00FA000000FA000000F4013C0098
S2140035D0FA000000FA000000F4014300F4014D0078
S2140035E0F4014D00F4014D00F4014100E8034500EC
S2140035F0E8034800E8034D00E8034D00F4014A00E4
S214003600E8034800F4014D00F4014A00E8034600D0
S214003610E8034800E8034F00E8034A00E8034300D5
S214003620E8034300E8034A00E8034F00E8034300CA
S214003630F4014600F4014500F4014300F4014200A1
S214003640F4013C00F4013E00F4014000F4014100A6
S214003650F4014300F4014500F4014700F40148007A
S214003660F4013139426C654D696469436F6D6D755F
S2140036706E696361746F7200364462360437000008
S21400368078365D87EB874A8F0C88358B478752875D
S2140036905D8C6D8CB08CFD8CAA8DBB8DEE8D02057D
S2140036A04600460041004600450041004A0002052B
S2140036B03D003F003F004100420041003F00010541
S2140036C045004C004B004C004B004C0001043E00F3
S2140036D04300430043003F00020443004100430010
S2140036E0410046004800020445003E0043004A00F0
S2140036F0460045003132436F6D6D756E69636174C7
S2140037006F7200007444F436000004377790A4907B
S21400371084908D90969097909A909D909E909F9072
S214003720A090A190A290A390414F4B005265626F6B
S2140037306F7400434D4400436F6E6E65637465643A
S21400374000426F6E646564004348572C3030314247
S2140037502C0045525200373737324535444233380D
S21400376036383431313241314139463236363944D1
S214003770313036424633005800304500454E44004E
S21400378053462C310053522C3830303030303030E5
S21400379000522C31004600450042004C4300803762
S2140037A00500F39000007591000064000100000021
S2140037B085370C00F390000075910000640001004E
S2140037C0000091370400F390000091910000E80398
S2140037D00100000095370200F39000008595000078
S2140037E064000A00881377370200F3900000759192
S2140037F000006400010000009737020009910000F5
S214003800D091000064000100000099370200F39098
S2140038100000EC9100006400010000009B370300EC
S214003820F3900000C597000064000100000073726A
S214003830632F537472696E675574696C6974792E58
S2140038406370700073747220213D204E554C4C00FE
S21400385031203C3D206C656E0062756620213D205F
S2140038604E554C4C00636861722A20636F70794332
S2140038706F6D6D61536570617261746564576F72C8
S2140038806428636F6E737420636861722A2C2063E9
S2140038906861722A2C20696E742900636F6E7374D7
S2140038A020636861722A20676574436F6D6D61538B
S2140038B06570617261746564576F726428636F6EB9
S2140038C0737420636861722A2C20696E742A29003A
S2140038D000000100020006000C001C003800780002
S2140038E0F000F00101008000020040000300C0006C
S2140038F0040020000500A000060060000700E000AD
S21400390008001000090090000A0050000B00D000CC
S2140039100C0030000D00B0000E0070000F00F0002C
S21400392011008800120048001300C8001400280088
S2140039301500A800160068001700E8001900980097
S2140039401A0058001B00D8001C0038001D00B800E4
S2140039501E0078001F00F8002100840022004400AA
S2140039602300C4002500A400260064002700E4000D
S214003970290094002A0054002B00D4002C003400A8
S2140039802D00B4002E0074002F00F40031008C00CF
S21400399032004C003300CC003500AC0036006C0022
S2140039A03700EC0039009C003A005C003B00DC006D
S2140039B03D00BC003E007C003F00FC004100820051
S2140039C04300C2004500A200460062004700E20035
S2140039D0490092004A0052004B00D2004D00B2004F
S2140039E04E0072004F00F20051008A005300CA00D9
S2140039F05500AA0056006A005700EA0059009A00CF
S214003A005B00DA005D00BA005E007A005F00FA0034
S214003A10610086006300C6006500A6006700E60039
S214003A20690096006B00D6006D00B6006E0076004A
S214003A306F00F60071008E007300CE007500AE00B9
S214003A407700EE0079009E007B00DE007D00BE0061
S214003A507F00FE008300C1008500A1008700E10012
S214003A60890091008B00D1008D00B1008F00F1001D
S214003A709300C9009500A9009700E9009B00D900B3
S214003A809D00B9009F00F900A300C500A700E5004F
S214003A90AB00D500AD00B500AF00F500B300CD001B
S214003AA0B700ED00BB00DD00BF00FD00C700E3006F
S214003AB0CB00D300CF00F300D700EB00DF00FB0005
S214003AC0EF00F70000400000FB3F6EFEEC3FDDFC21
S214003AD0D33F4BFBB13FBBF9843F2BF84E3F9CF6E0
S214003AE00E3F0FF5C53E84F3713EFBF1143E74F0B5
S214003AF0AE3DEFEE3E3D6CEDC53CEDEB423C71EA73
S214003B00B63BF8E8203B83E7823A11E6DA39A3E4CD
S214003B102A393AE37138D5E1AF3775E0E53619DF73
S214003B201236C3DD363572DC533426DB6733E1D913
S214003B307432A1D8793167D7763033D66B2F06D555
S214003B405A2EDFD3412DBFD2212CA6D1FA2A95D0EA
S214003B50CD298ACF992887CE5F278CCD1F2699CC72
S214003B60DA24ADCB8E23CACA3D22EEC9E7201BC994
S214003B708B1F51C82B1E8FC7C61CD6C65D1B26C6FC
S214003B80EF197EC57D18E0C408174AC48F15BEC35A
S214003B9013143BC39412C2C2111152C28C0FECC153
S214003BA0050E8FC17C0C3BC1F10AF2C06409B2C09D
S214003BB0D5077CC045064FC0B5042DC0230314C0EE
S214003BC0920105C0000000C06EFE05C0DDFC14C0FA
S214003BD04BFB2DC0BBF94FC02BF87CC09CF6B2C087
S214003BE00FF5F2C084F33BC1FBF18FC174F0ECC15A
S214003BF0EFEE52C26CEDC2C2EDEB3BC371EABEC340
S214003C00F8E84AC483E7E0C411E67EC5A3E426C606
S214003C103AE3D6C6D5E18FC775E051C819DF1BC990
S214003C20C3DDEEC972DCCACA26DBADCBE1D999CCBE
S214003C30A1D88CCD67D787CE33D68ACF06D595D078
S214003C40DFD3A6D1BFD2BFD2A6D1DFD395D006D5BB
S214003C508ACF33D687CE67D78CCDA1D899CCE1D979
S214003C60ADCB26DBCACA72DCEEC9C3DD1BC919DFC1
S214003C7051C875E08FC7D5E1D6C63AE326C6A3E499
S214003C807EC511E6E0C483E74AC4F8E8BEC371EA1D
S214003C903BC3EDEBC2C26CED52C2EFEEECC174F06A
S214003CA08FC1FBF13BC184F3F2C00FF5B2C09CF6A6
S214003CB07CC02BF84FC0BBF92DC04BFB14C0DDFCFD
S214003CC005C06EFE000000000000000000000000BE
S214003CD00000E438000000000000000000000000C3
S214003CE0000000000000C43A000000007444F03CED
S214003CF031374261736550697463684465746563FF
S214003D00746F72000000EC3CA2A9AFA963F963F9D6
S214003D1063F9000000000000000000000000000042
S214003D20000000000000000000000000000000008E
S214003D30000000000000000000000000000000007E
S214003D40000000000000000000000000000000006E
S214003D50000000000000000000000000000000005E
S214003D60000000000000000000000000000000004E
S214003D70000000000000000000000000000000003E
S214003D80000000000000000000000000000000002E
S214003D90000000000000000000000000000000001E
S214003DA0000000000000000000000000000000000E
S214003DB000000000000000000000000000000000FE
S214003DC00000E103FF03A903E0037503A803430310
S214003DD0740314034203E8021303BE02E7029702C9
S214003DE0BD02720296024F0271022E024E020E02AF
S214003DF02D02F1010D02D501F001BB01D401A20193
S214003E00BA018A01A101740189015F0173014C01A5
S214003E105E0139014B01280138011701270107010E
S214003E201601F9000601EB00F800DE00EA00D100FA
S214003E30DD00C500D000BA00C400B000B900A6007E
S214003E40AF009D00A50094009C008C0093008400A9
S214003E508B007D00830076007C006F007500690093
S214003E606E00630068005D00620058005C0053004E
S214003E7057004F0052004A004E00460049004200DC
S214003E8045003F0041003B003E0038003A00350048
S214003E903700320034002F0031002C002E002A009C
S214003EA02B002800290025002700230024002100DD
S214003EB02200200020001E001F001C001D001B000A
S214003EC01B0019001A00180018001600170015002D
S214003ED01500140014001300130012001200110045
S214003EE01100100010000F000F000E000E00000062
S214003EF000000D000D000C000C000B000B00000075
S214003F0000000A000A000000000009000900000086
S214003F10000008000800000000000700070000007E
S214003F200000000000000600060000000000000080
S214003F300000050005000000000000000000000072
S214003F400000040004000000000000000000000064
S214003F500000000000000300030000000000000056
S214003F60000000000000000000000000000000004C
S214003F700000020002000000000000000000000038
S214003F80000000000000000000000000000000002C
S214003F90000000000000000000000000000000001C
S214003FA0000000A498918C888582807E7C7A79783F
S214003FB0767574737271706F6E6E6D6C6C6B6A6A08
S214003FC06969686767666665656564646363626297
S214003FD0626161616060605F5F5F5E5E5E5D5D5DE9
S214003FE05D5C5C5C5B5B5B5B5A5A5A5A5959595923
S214003FF0595858585857575757575656565656554D
S214004000555555555554545454545453535353536B
S2140040105352525252525252515151515151515083
S2140040205050505050504F4F4F4F4F4F4F4F4E4E97
S2140040304E4E4E4E4E4E4D4D4D4D4D4D4D4D4D4CA6
S2140040404C4C4C4C4C4C4C4C4B4B4B4B4B4B4B4BB3
S2140040504B4B4A4A4A4A4A4A4A4A4A4A49494949BD
S21400406049494949494949484848484848484848C4
S21400407048484847474747474747474747474747C8
S21400408046464646464646464646464646454545CE
S21400409045454545454545454545454444444444D0
S2140040A044444444444444444443434343434343D2
S2140040B043434343434343434342424242424242D2
S2140040C042424242424242424242414141414141D1
S2140040D041414141414141414141414040404040D0
S2140040E040404040404040404040404040403F3FCD
S2140040F03F3F3F3F3F3F3F3F3F3F3F3F3F3F3F3FCB
S2140041003F3E3E3E3E3E3E3E3E3E3E3E3E3E3E3EC9
S2140041103E3E3E3E3E3E3D3D3D3D3D3D3D3D3D3DC4
S2140041203D3D3D3D3D3D3D3D3D3D3D3D3C3C3C3CBE
S2140041303C3C3C3C3C3C3C3C3C3C3C3C3C3C3C3CBA
S2140041403C3C3C3C3B3B3B3B3B3B3B3B3B3B3B3BB6
S2140041503B3B3B3B3B3B3B3B3B3B3B3B3B3A3A3AAD
S2140041603A3A3A3A3A3A3A3A3A3A3A3A3A3A3A3AAA
S2140041703A3A3A3A3A3A3A393939393939393939A3
S214004180393939393939393939393939393939399A
S2140041903939393838383838383838383838383897
S2140041A0383838383838383838383838383838388A
S2140041B0373737373737373737373737373737378A
S2140041C0373737373737373737373737373737377A
S2140041D0363636363636363636363636363636367A
S2140041E0363636363636363636363636363636366A
S2140041F03635353535353535353535353535353569
S2140042003535353535353535353535353535353559
S2140042103535353534343434343434343434343455
S2140042203434343434343434343434343434343449
S2140042303434343434343434343333333333333340
S2140042403333333333333333333333333333333339
S2140042503333333333333333333333333333333329
S2140042603232323232323232323232323232323229
S2140042703232323232323232323232323232323219
S214004280323232323232323232323131313131310F
S2140042903131313131313131313131313131313109
S2140042A031313131313131313131313131313131F9
S2140042B031313131313130303030303030303030F3
S2140042C030303030303030303030303030303030E9
S2140042D030303030303030303030303030303030D9
S2140042E030303030302F2F2F2F2F2F2F2F2F2F2FD4
S2140042F02F2F2F2F2F2F2F2F2F2F2F2F2F2F2F2FC9
S2140043002F2F2F2F2F2F2F2F2F2F2F2F2F2F2F2FB8
S2140043102F2F2F2F2F2F2F2E2E2E2E2E2E2E2E2EB1
S2140043202E2E2E2E2E2E2E2E2E2E2E2E2E2E2E2EA8
S2140043302E2E2E2E2E2E2E2E2E2E2E2E2E2E2E2E98
S2140043402E2E2E2E2E2E2E2E2E2E2E2D2D2D2D2D8D
S2140043502D2D2D2D2D2D2D2D2D2D2D2D2D2D2D2D88
S2140043602D2D2D2D2D2D2D2D2D2D2D2D2D2D2D2D78
S2140043702D2D2D2D2D2D2D2D2D2D2D2D2D2D2D2D68
S2140043802D2D2D2C2C2C2C2C2C2C2C2C2C2C2C2C65
S2140043902C2C2C2C2C2C2C2C2C2C2C2C2C2C2C2C58
S2140043A02C2C313550697463684465746563746F8A
S2140043B0724670008445A24300000100EC3C0000F9
S2140043C000000000B44348AAB9AACAA917AAD9ABE4
S2140043D04300432300440044230045004600462390
S2140043E00047004723004100426200420000D043DD
S2140043F0D243D543D743DA43DC43DE43E143E343CA
S214004400E643E843EB434E31305F5F6378786162A2
S21400441069763132305F5F73695F636C6173735FB7
S214004420747970655F696E666F45000036440644B1
S2140044306A4400002C44C8C4E0C4DBECDEEC13CDB8
S214004440E1CBEEC60AC559C64E31305F5F63787859
S214004450616269763131375F5F636C6173735F7475
S2140044607970655F696E666F45003644484440451E
S21400447000006A4466CC7ECCDBECDEEC13CDE1CBF0
S214004480A8CC9CCD50CC7374643A3A65786365705A
S21400449074696F6E007374643A3A6261645F65783B
S2140044A063657074696F6E00537439657863657000
S2140044B074696F6E00007444A844537431336261AB
S2140044C0645F657863657074696F6E003644BA44DD
S2140044D0B6444E31305F5F63787861626976313119
S2140044E0355F5F666F726365645F756E77696E646D
S2140044F045007444D2444E31305F5F637878616221
S21400450069763131395F5F666F726569676E5F65C0
S2140045107863657074696F6E45007444F6440000F5
S214004520B64425EA43EA39EA0000CC442FEA5BEABF
S2140045303EEA537439747970655F696E666F000081
S2140045407444324500004045D1ECE4ECDBECDEEC94
S214004550FCECE1EC4E31305F5F637878616269763F
S2140045603132315F5F766D695F636C6173735F7460
S2140045707970655F696E666F4500364454456A44D7
S21400458000007A4541ED59EDDBECDEEC13CDE1CBD6
S2140045901BF60DEF83ED7075726520766972747583
S2140045A0616C206D6574686F642063616C6C656413
S2140045B00A0064656C65746564207669727475615A
S2140045C06C206D6574686F642063616C6C65640A4A
S2140045D0007374643A3A6261645F616C6C6F630086
S2140045E05374396261645F616C6C6F6300003644BB
S2140045F0E045B6440000EE4581F999F97CF92C2097
S21400460066756E6374696F6E3A2000006173736539
S2140046107274696F6E2022257322206661696C654C
S214004620643A2066696C6520222573222C206C690A
S2140046306E65202564257325730A000066B0430066
S214004640494E4600696E66004E414E006E616E0031
S21400465030313233343536373839414243444546B3
S2140046600030313233343536373839616263646549
S214004670660030003030303030303030303030305F
S21400468030303030202020202020202020202020E5
S2140046902020202030313233343536373839414205
S2140046A04344454600303132333435363738396185
S2140046B06263646566003030303030303030303021
S2140046C03030303030302020202020202020202085
S2140046D0202020202020496E66696E697479004E7D
S2140046E0614E0030004300504F53495800002E00E2
S2140046F0050019007D009595E6241FB14F0ACA1BD8
S2140047000E5AAEC59D740000803F00002041000098
S214004710C84200007A4400401C460050C3470024AC
S21400472074498096184B20BCBE4C286B6E4EF9021E
S2140047301550B743BA51A5D46853E784115521E6FE
S214004740B556A95F6358CA1B0E5ABCA2B15B6B0B69
S2140047505E5D23C70A5FEC78AD6027D7586278861F
S21400476007641668A9651CC2536730313233343586
S21400477036373839414243444546003031323334C7
S21400478035363738396162636465660030303030FC
S2140047903030303030303030303030302020202054
S2140047A02020202020202020202020200000000084
S2140047B000000000000000010202030303030404DB
S2140047C0040404040404050505050505050505059A
S2140047D0050505050505060606060606060606067A
S2140047E00606060606060606060606060606060664
S2140047F0060606060606070707070707070707074A
S2140048000707070707070707070707070707070733
S2140048100707070707070707070707070707070723
S2140048200707070707070707070707070707070713
S21400483007070707070708080808080808080808F9
S21400484008080808080808080808080808080808E3
S21400485008080808080808080808080808080808D3
S21400486008080808080808080808080808080808C3
S21400487008080808080808080808080808080808B3
S21400488008080808080808080808080808080808A3
S2140048900808080808080808080808080808080893
S2140048A00808080808080808080808080808080883
S2140048B0080808080808FFFF01020000FFFF0102C1
S2140048C00000FFFF010400000100FFFF01020000DE
S2140048D0FFFF010400000100FFFF01020000FFFFD0
S2140048E001020000FFFF010400000100FF030D01AC
S2140048F00200017F00000000EE45000001000000FD
S214004900FF031101040001010501007F00007D0086
S2140049100000000000000000FF030D01020001017E
S2140049200000000000000000FF030D01040001016C
S214004930000100000000000000000000FFFF8C4A9D
S2140049404959935A7D6E976EB16ED46EEE6E086FAF
S214004950226F8B6FAC6F268635860000FFFF000047
S21400496061EFC1C3C561CF200AA814BDE8A81CBD6D
S214004970EA307EB5B800AF7EB5BDF0FAF0AC0ABD41
S214004980F2FAF261FA8DF09807A81ABDF2DAF23060
S2140049900002780000DAEAF6780000881670510007
S2140049A001B808C9EC0000A818BDF2ADEC46F271DB
S2140049B0FF7177F361C8EC284A0088079800FC96D8
S2140049C06700DAE8ADF0780000A81ABDF2FAF2AB9C
S2140049D0BDF2B804ADF0B80246F271FF7177F3612C
S2140049E0E3ECE94900ADF2B802A802BDF0A81ABD92
S2140049F0F2DAF2ADF0780000FAEAABBDF2B804FAEB
S214004A00E8ABB80246F271FF7177F361C8EC154A5D
S214004A1000ADF2B802A802DAEA780000A80806E8B4
S214004A20BDE8A6ECECA74900100A61EFC4C2C0615D
S214004A30CFD720048F96AF9800F19802FC4D6800FF
S214004A408F94AF9800F19802FC4D68008F92AF9853
S214004A5000F19802FC4D68008F98AF9800E198022C
S214004A60FC4D680030E803B800F6B802FC086200A7
S214004A708F98AF9800F19802FC4D680030E803B8B4
S214004A8000F6B802FC086200EC584A002006307EA9
S214004A90B5B800FC278800305D87B800307EB5B812
S214004AA002305EB0B804FCE6FA003076B5B800FC1A
S214004AB02DAB003048AAB8003076B5B802305EB0EC
S214004AC0B804FCE6FA003070B5B800FCABA30030C2
S214004AD081A4B8003070B5B802305EB0B804FCE609
S214004AE0FA003066B5B800FCE9A50030FCA5B800B1
S214004AF03066B5B802305EB0B804FCE6FA00305A4C
S214004B00B5B800301400B802FC72B5003052B5B823
S214004B1000305AB5B802305EB0B804FCE6FA0010B1
S214004B2006D761EFC161CF208830EEB5B8003000FF
S214004B30C2B802E6B804FCA65700E19800FC305F55
S214004B4000AEF8040800BDE8B800F6B802308000F1
S214004B50B804FC700601ADE8B800300030B802FCBE
S214004B6065100130EEB5B800ADE8B802FC505B0049
S214004B7030EEB5B800301230B802FC505B008F98AB
S214004B80AF9800E19802FC2765008F96AF9800E189
S214004B909802FC2765008F94AF9800E19802FC27E6
S214004BA065008F92AF9800E19802FC2765008F9809
S214004BB0AF9800F19802FC4D68008F96AF9800F110
S214004BC09802FC4D68008F94AF9800F19802FC4D57
S214004BD068008F92AF9800E19802FC4D6800307E26
S214004BE0B5B800AF7EB5BDF0FAF0AC04BDF4FAF48B
S214004BF061FAADF2440000ADF061F844000061F8DF
S214004C00EC084C00FC324A008F98AF9800E19802FE
S214004C10FC4D68003076B5B800306049B802FCCA72
S214004C20A900ADF044000061E8EC044C008F96AF9C
S214004C309800E198028DF098078DF19806FC4D6873
S214004C4000ADE8B80088079DF088069DF1ADF0B885
S214004C5002302400B804FC70060130EC36B8083088
S214004C60E836B80A30D036B80E30CE36B81030DE59
S214004C7036B81430DA36B81630C236B81A30C036FF
S214004C80B81C30B436B82030B036B82230A436B8A7
S214004C902630A036B8288FE736980C8FE636980D63
S214004CA08FCD3698128FCC3698138FD93698188FAA
S214004CB0D83698198FBF36981E8FBE36981F8FAF7E
S214004CC03698248FAE3698258F9F36982A8F9E3634
S214004CD0982B3066B5B800ADE8B802300600B804C8
S214004CE0FC25A700D4F061F8EC044C00108861EFB6
S214004CF0C061CFD761EFC1C3C561CF2096AEF804BF
S214004D001600BDE8B800F6B802308000B804FC70A3
S214004D100601ADE8B800301A30B802FC6510013064
S214004D20EEB5B800ADE8B802FC505B0030EEB5B8A2
S214004D3000301230B802FC505B008F98AF9800E14C
S214004D409802FC4D68008F96AF9800E19802FC4DE3
S214004D5068008F94AF9800E19802FC4D68008F922F
S214004D60AF9800F19802FC4D6800ADE8B800F6B8C0
S214004D7002308000B804FC700601ADE8B80030438D
S214004D8030B802FC65100130EEB5B800ADE8B802E8
S214004D90FC505B0030EEB5B800301230B802FC5064
S214004DA05B00F6B80CF1980EF6B810F6B812F1984B
S214004DB0148F96AF9800F19802FC4D68003076B5D7
S214004DC0B800AEF80496000476FFB802FCD9AB0033
S214004DD08F96AF9800E19802FC4D68008F94AF9DC7
S214004DE0F0880ED161F8ECF34D008DF09800F1ECF0
S214004DF0F84D008DF09800E19802FC4D6800307088
S214004E00B5B800880E705100B802A812B804FCD0DD
S214004E10A4008DF09DEC3070B5B800FC31A500AD57
S214004E20F0BDEAD4EC61E8EC4B4E00307EB5B8003D
S214004E30AF7EB5BDF0FAF0AC0CBDF2FAF261FAD472
S214004E40F061E8EC845100ECB34F00ADEA4400009A
S214004E5061E8EC964E00ADE8B800ADEAB8023080E6
S214004E6000B804FC700601ADE8B800304D30B8025A
S214004E70FC65100130EEB5B800ADE8B802FC505B3A
S214004E800030EEB5B800301230B802FC505B00F1CE
S214004E90980EECF54E00ADE8B800F6B8023080008B
S214004EA0B804FC700601A810B80844000061E8ECDD
S214004EB0B84E00301530B808AEF80496000480FFEF
S214004EC0B800308000B802305830B804A808B806D9
S214004ED0FC7B0F0130EEB5B800AEF80496000480F7
S214004EE0FFB802FC505B0030EEB5B800301230B8A8
S214004EF002FC505B00307EB5B800A80CB802ADEAE4
S214004F00B804AF7EB5BDF0FAF0AC08BDF2DAF261D7
S214004F10DA3066B5B800ADEAB802FC6AA600ADF0B5
S214004F20B80A9DF0880A9DECD4EC61E8EC384F0096
S214004F30D4F061F8EC2B4E004AF00161E8ECE84F43
S214004F4000ADE8B800F6B802308000B804FC700681
S214004F5001ADE8B800306130B802FC65100130EEF3
S214004F60B5B800ADE8B802FC505B0030EEB5B8004E
S214004F70301230B802FC505B0030E803B800F6B8D8
S214004F8002FC0862003070B5B800FC3BA500305A41
S214004F90B5B800FC53B500AF7EB5BDF0307EB5B8F1
S214004FA000D4EC61E8ECCB4F00FAF0AC0EBDF4DABE
S214004FB0F461DA307EB5B800AF7EB5BDF0FAF0AC7D
S214004FC006BDF4FAF461FAECA24D004AEC0161E881
S214004FD0ECDC4F00FAF0AC16EC5D50008DEC98025D
S214004FE0FAF0AC12ECB750004AF00261E8ECED5073
S214004FF000ADE8B800F6B802308000B804FC7006D1
S21400500001ADE8B800307A30B802FC65100130EE29
S214005010B5B800ADE8B802FC505B0030EEB5B8009D
S214005020301230B802FC505B0030E803B800F6B827
S21400503002FC0862003070B5B800FC3BA500305A90
S214005040B5B800FC53B500AF7EB5BDF0307EB5B840
S21400505000D4EC61E8ECC15000FAF0AC10BDF2DA16
S214005060F2ECB14F004AF00361E8EC295100ADE8DC
S214005070B800F6B802308000B804FC700601ADE84F
S214005080B800309D30B802FC65100130EEB5B800AF
S214005090ADE8B802FC505B0030EEB5B80030123018
S2140050A0B802FC505B00307EB5B800E19802AF7ED7
S2140050B0B5BDF0FAF0AC1ABDF4DAF461DAECB34F31
S2140050C0004AEC0161E8ECE15000FAF0AC18BDF4DF
S2140050D0DAF461DA305AB5B800FC53B500ECB34FD9
S2140050E0008DEC9802FAF0AC14EC7C5100ADE8B8F8
S2140050F000F6B802308000B804FC700601ADE8B8CF
S21400510000309130B802FC65100130EEB5B800AD45
S214005110E8B802FC505B0030EEB5B800301230B88C
S21400512002FC505B00EC2B4E004AF00161E8ECB349
S2140051304F00ADE8B800F6B802308000B804FC7046
S2140051400601ADE8B80030B130B802FC6510013099
S214005150EEB5B800ADE8B802FC505B0030EEB5B86E
S21400516000301230B802FC505B00307EB5B80051FB
S214005170029802AF7EB5BDF0FAF0AC1ABDF2DAF2D4
S214005180ECBB5000305AB5B800881498028DEA6B14
S214005190EB9DEA76F1612E6BEA317A9804FC92B5C3
S2140051A0004AF00261E8EC655000ADE8B800F6B8D9
S2140051B002308000B804FC700601ADE8B80030C5C7
S2140051C030B802FC65100130EEB5B800ADE8B802A4
S2140051D0FC505B0030EEB5B800301230B802FC5020
S2140051E05B00307EB5B8005103ECAC5000A804BD9F
S2140051F0F0FAF0AC0CBDF004000116ABBDF4ADF057
S21400520004020116ABBDF28DF2768DF4612E9DF090
S214005210F4F1D7A804BDF0FAF0AC0CBDF004000120
S21400522016ABBDF4ADF004020116ABBDF2ADF4460C
S214005230F261F8EC525200ADF004020116ABBDF27A
S214005240ADF006F2BDF2FAF28B705100BDF0EC56EE
S2140052505200C9F0FFFFD7A804BDF0FAF0AC0CBDB1
S214005260F204000116ABBDF4ADF204020116ABBDAC
S214005270F0ADF446F061F8ECAD5200ADF204020178
S21400528016ABBDF0ADF206F0BDF4FAF48B7051002B
S214005290BDF0ADF204020114A9A1BDF68DF69DF491
S2140052A0F4F5DAF2ADF4780201ECB15200C9F0FF81
S2140052B0FFD761EFC161CFA806BDF2FAF2AC0EBD12
S2140052C0F004000114A9A1BDF68DF69DF4F4F5AD29
S2140052D0F004020116ABBDF6ADF446F661F8ECCF6D
S2140052E05200717BFAADF004000116ABBDF6ADF0CE
S2140052F006F6BDF6DAF68808480000FAF2AC0EBDEF
S214005300F0DAF0ADF47800018C109DE8D4E861E89E
S214005310EC4A5300AF0001BDF68DF65C409DF48D5F
S214005320E89DF5ADF444000061E8ECD25300715BF3
S214005330E1ADF004020116ABBDF4ADF006F4BDF429
S214005340FAF48B9F10FFECB753004AE80161E8ECD3
S214005350875300AF0401BDF68DF65C409DF4F4F56E
S214005360ADF444000061E8ECD25300710BE2ADF0FE
S21400537004020116ABBDF4ADF006F4BDF6FAF68BEA
S2140053809F44FFECB75300AF4001BDF68DF65C407E
S2140053909DF4F4F5ADF444000061E8ECD2530071DE
S2140053A00BE1ADF004020116ABBDF4ADF006F4BDA2
S2140053B0F4FAF48B9F48FFFAF2AC0EBDF204020139
S2140053C014A9A1BDF48DF49DF0F4F1DAF2ADF078F5
S2140053D00201717AFAC9F0010061EFC061CFD761AE
S2140053E0EFC1C3C561CFA80ABDF6FAF6AC0EBDE89C
S2140053F0ADE804000116ABBDEAADE804020116AB49
S214005400BDECADEA46EC61E8ECF05300FAF68C1021
S2140054109DF6D4F661E8EC365400AF0001BDF08D81
S214005420F05C609DF4F4F5ADF444000061E8EC1A1D
S2140054305400EC7354004AF60161E8EC5B5400AF8C
S2140054400401BDF08DF05C609DF2F4F3ADF2440013
S2140054500061E8EC3F5400EC735400AF4001BDF22D
S2140054608DF25C609DF0F4F1ADF044000061E8EC74
S2140054705B540061EFC4C2C061CFD7A806BDF0047C
S214005480000114A9A1BDF48DF49DF2F4F3ADF0046F
S214005490020116ABBDF4ADF246F461F8ECBD540063
S2140054A0ADF004000116ABBDF4ADF006F4BDF6DABF
S2140054B0F68804480000DAF0ADF2780001D7200440
S2140054C08F12FF98003014BBB802FC7B5400100407
S2140054D0D720048F46FF9800300CB9B802FC7B54E6
S2140054E0001004D720048F4AFF98003004B7B80293
S2140054F0FC7B54001004D7AF10BBBDF2AF12BBBD8F
S214005500F0ADF246F061F8EC275500AF12BB041080
S214005510BA168B9F10FFAF12BBA1BDF28DF29DF0A5
S214005520F4F1ADF0BF12BBD7AF08B9BDF2AF0AB900
S214005530BDF0ADF246F061F8EC585500AF0AB9047C
S21400554008B8168B9F44FFAF0AB9A1BDF28DF29D35
S214005550F0F4F1ADF0BF0AB9D7AF00B7BDF2AF02B5
S214005560B7BDF0ADF246F061F8EC895500AF02B772
S2140055700400B6168B9F48FFAF02B7A1BDF28DF2AE
S2140055809DF0F4F1ADF0BF02B7D78F12FF300700E1
S214005590BF0A01D78F46FF300700BF0E01D78F4ADC
S2140055A0FF300700BF4A01D7A804BDF0FAF08C1000
S2140055B09DF0D4F061E8EC0A56007120F000AF24AC
S2140055C001BDF28DF26C039DF08DF39DF1ADF0BF41
S2140055D02401715AED715AE9716AED716AE9717ABE
S2140055E0ED717AE9302200BF1001309780BF1801B4
S2140055F071407000300700BF0A01302201BF12015F
S214005600309744BF1A01ECAF56004AF00161E8EC4F
S2140056106356007120F000AF2401BDF28DF26C0CD1
S2140056209DF08DF39DF1ADF0BF2401710AEE710A75
S214005630EA711AEE711AEA712AEE712AEA302280AD
S214005640BF1401309780BF1C017140700030070006
S214005650BF0E01302281BF1601309744BF1E01ECF9
S214005660AF56007130F000AF6401BDF28DF26C03EE
S2140056709DF08DF39DF1ADF0BF6401710AED710AE6
S214005680E9711AED711AE9712AED712AE9302200E2
S214005690BF5001309780BF5801714070003007003E
S2140056A0BF4A01302201BF5201309744BF5A01D78A
S2140056B0A804BDF0FAF08C109DF0D4F061E8EC0C74
S2140056C05700715BE1715BE5716BE1716BE5717BB6
S2140056D0E1717BE5AF2A01BDF28DF26C019DF08D84
S2140056E0F39DF1ADF0BF2A01AF2201BDF28DF26C41
S2140056F0039DF08DF39DF1ADF0BF2201711021FFE7
S214005700712001FF712821FFECA557004AF00161C6
S214005710E8EC5F5700710BE2710BE6711BE2711B40
S214005720E6712BE2712BE6AF2A01BDF28DF26C0416
S2140057309DF08DF39DF1ADF0BF2A01AF2201BDF2C1
S2140057408DF26C0C9DF08DF39DF1ADF0BF220171D2
S2140057501020FF710000FF710820FFECA5570071B4
S2140057600BE1710BE5711BE1711BE5712BE1712BF0
S214005770E5AF6A01BDF28DF26C019DF08DF39DF1EF
S214005780ADF0BF6A01AF6201BDF28DF26C039DF011
S2140057908DF39DF1ADF0BF6201714021FF713001C4
S2140057A0FF713821FFD761EFC1C3C561CF2014A8B0
S2140057B01EBDE8A820BDF4A822BDF6C9EA00008DEB
S2140057C0EA76E68696DD05311D96DFFBB80CB81046
S2140057D0317B98129813300048B80030E801B802C0
S2140057E0A810B804A812B8068DF498088DF5980B82
S2140057F08DF6980A8DF79809FC00C901ADF0B8003F
S214005800ADF2B80288089DF4880B9DF5880A9DF6CF
S21400581088099DF7ADF4B804ADF6B806FCF8C801E3
S214005820ADF004FFFFBDF0ADF261D8A104FFFFBDEF
S214005830F2ADF2311EB80E8DF161FB980D8DF06160
S214005840FB980CA80CBDF088089DF4880B9DF58885
S2140058500A9DF688099DF7ADF0447F0061E3EC6F82
S2140058605800A6EAADEA44100061E8ECBF5700FA1B
S214005870E88C109DF4A80C319DBDECADE8B800D4C2
S214005880F461E8ECC458008DF49808FCA85500AF05
S2140058902601BDF28DF25CF09DF08DF39DF1ADF02A
S2140058A0BF2601BDF28DEA5C0F9DF06BF29DF48D74
S2140058B0F39DF5ADF4BF2601ADECBF10FFBF12FFA0
S2140058C0EC3759004AF40161E8EC045900FCA8558D
S2140058D000AF2601BDF28DF25C0F9DF08DF39DF1B9
S2140058E0ADF0BF2601BDF28DEA31496BF29DF48D15
S2140058F0F39DF5ADF4BF2601ADECBF44FFBF46FFF8
S214005900EC375900FCA85500AF6601BDF28DF25C7D
S214005910F09DF08DF39DF1ADF0BF6601BDF28DEA0E
S2140059205C0F6BF29DF48DF39DF5ADF4BF6601AD93
S214005930ECBF48FFBF4AFFADE8B800FCB056001009
S2140059401461EFC4C2C061CFD732F0B5F67800005C
S21400595030E803780200F678040032EEB530023103
S2140059607800003014BB780C003010BA780E00F1C6
S21400597048100032DEB5F678000030E80378020002
S214005980F678040032DCB5300231780000300CB90D
S214005990780C003008B8780E00E148100032CCB51C
S2140059A0F678000030E803780200F678040032CA81
S2140059B0B53002317800003004B7780C003000B6FD
S2140059C0780E005102481000D761EFC1C3C561CF01
S2140059D0200AA814BDE8A816BDECF6B806B808ADAF
S2140059E0ECB800A80606E8BDF0FAF08C0298023083
S2140059F00A00B804FC115D00ADF0BDEAADECB800DD
S214005A00512E9802FC615B00ADF006EABDF0A808D6
S214005A1006F0B808FBF8FF617906A80644030061A3
S214005A20E8ECDF5900ADECB800FAE88C05980230D7
S214005A300A00B804FC115D00A80806F0BDF0100AC4
S214005A4061EFC4C2C061CFD72006A80ABDF0BDF280
S214005A50DAF2303231780000ADF0040200B800F619
S214005A60B802300400B804FC7006011006D7A8047B
S214005A70BDF0BDF2DAF2303231780000DAF0880696
S214005A804802008808480300880A480400880C4832
S214005A900500D73218BC303231780000F1480200D9
S214005AA0F1480300F1480400F1480500D761EFC152
S214005AB0C3C561CF2006A810BDEAA812BDECA81485
S214005AC006ECB804C9E80000A80446EC61F8ECF956
S214005AD05A00FAEAABBDF0ADEAB800FAEC8B9802D1
S214005AE0ADF0BDF2FAF2ABBDF2FAF261FAADE8063D
S214005AF0F0BDE8A6ECECC85A00ADE8BDF0100661B3
S214005B00EFC4C2C061CFD761EFC1C361CF2006A882
S214005B100EBDEAA810BDE844000061F8EC455B0045
S214005B20B800FC921001FAEAABBDF2ADEAB800ADDF
S214005B30E8B802ADF0B804FAF2AC02BDF2FAF261CF
S214005B40FAEC475B00BDF0100661EFC2C061CFD72C
S214005B502004A808B800A80AB802FC075B001004D6
S214005B60D72004A808BDF0BDF4FAF4ABBDF2ADF042
S214005B70B800880A9802ADF2BDF4FAF4ABBDF2FAAA
S214005B80F261FA1004D761EFC1C361CF2004A80CFC
S214005B90BDE8B800510D9802FC615B00ADF0BDEAAF
S214005BA0ADE8B800510A9802FC615B00ADF006EA69
S214005BB0BDF0100461EFC2C061CFD761EFC1C36111
S214005BC0CF2004A80CBDE8B800A80EB802FC075BFE
S214005BD000ADF0BDEAADE8B800FC865B00ADEA06B5
S214005BE0F0BDF0100461EFC2C061CFD761EFC1C352
S214005BF0C561CF2036A842B808A844B80A88469D92
S214005C00ECF198354AEC0161F3EC105C00CDEC0A3F
S214005C10AEF8043400B8108DEC9DE8F4E98DE99DEB
S214005C20EA9DEBA808B800A80AB802ADE8B804AD2B
S214005C30EAB806FCF8C801ADF0B80CADF2B80E88AC
S214005C400C9DF18DEC708DF1D6609DF08DF0768810
S214005C5008612E9DF0A810B8128DF04C0971FF61F6
S214005C60F3EC6B5C000C30EC6D5C000C379DF0A820
S214005C7010BDF2DAF28DF0480000ADF2B1B810A80F
S214005C800E440000A80C61F844000061F8EC9D5C2E
S214005C9000A80CB808A80EB80AEC175C00A840B814
S214005CA000A812B802FC075B00103661EFC4C2C041
S214005CB061CFD761EFC161CF2008A80EBDF2A81052
S214005CC0BDF4A812BDF6A814BDF044000061E8ECCF
S214005CD0F55C00ADF2BDE8FAE8ABBDF0ADF2B80099
S214005CE08DF49802ADF0BDF2FAF2ABBDE8FAE861C9
S214005CF0FAEC095D00ADF2B800ADF4B802ADF6B846
S214005D00048DF09806FCEC5B00100861EFC061CFD4
S214005D10D72008A80CB800880E9802F19803F198CE
S214005D2004F19805A810B806FCB35C001008D788E4
S214005D30049DF6AFB401BDF48DF676E68696DD05D5
S214005D40311D96DFFBBDF28DF26BF49DF08DF36B8B
S214005D50F59DF1ADF0BFB401AFBA01BDF48DF29D73
S214005D60F07AF0FF8DF39DF17AF1FF8DF05BF49DF4
S214005D70F28DF15BF59DF3ADF2BFBA01AFB801BD90
S214005D80F48DF05BF49DF28DF15BF59DF3ADF2BF03
S214005D90B8014AF60461F8ECF65D004AF60461F3D1
S214005DA0ECC65D004AF60261F8ECE85D004AF602D1
S214005DB061F3ECEF5D004AF60161E8EC075E007106
S214005DC05AE6EC075E004AF60661F8EC045E004A06
S214005DD0F60661D8ECFD5D004AF60761E8EC075E62
S214005DE000712AD4EC075E00716AE6EC075E00716B
S214005DF07AE6EC075E00717AE7EC075E00710AD47B
S214005E00EC075E00711AD4AFB001BDF28DF25C9E55
S214005E109DF0F4F1ADF044000061E8EC335E00AFB5
S214005E20B401BDF28DF26C019DF08DF39DF1ADF0E5
S214005E30BFB401D761EFC1C3C561CF200CA816BDA2
S214005E40F4A818BDF6AFB001BDF28DF25CDE9DF091
S214005E50F4F1ADF044000061F8EC635E00E4ECECB5
S214005E60665E00CDEC02ADF644FFFFADF461F8448B
S214005E70FFFF61E8EC865E007120E7FF61FD712898
S214005E80E7FFEC015F00ADF4BF34C5ADF6BF36C525
S214005E907100D4FFAF30C5B808AF32C5B80AADF44C
S214005EA0B800ADF6B802304100B804F6B806FCF803
S214005EB0C801FBF8FFADF0610908BDF0ADF261D88E
S214005EC0A161090ABDF2ADF0BF30C5ADF2BF32C563
S214005ED04AEC0261E8ECDF5E0061FDECE15E006129
S214005EE0EDAF34C5BDE8AF36C5BDEAADEA44000047
S214005EF0ADE861F844000061E8ECD05E007108D4BB
S214005F00FF100C61EFC4C2C061CFD78FF0005C01F8
S214005F109DF0D4F061F8EC2A5F00AFB001440000B9
S214005F2061E8EC2A5F007108F000D7C9F00000D7DE
S214005F3088049FB7BCD78FFAFF9DF0717BFAAF3805
S214005F40C5BDF4AF3AC5BDF68DF09FFAFFADF4BD02
S214005F50F0ADF6BDF2D761EFC1C3C561CF2008C969
S214005F60EC38BCEAECA944000061F8ECF15F00FCF8
S214005F70365F00ADF0BDE8ADF2BDEAFAECADE86123
S214005F80290ABDF4ADEA61D8B161290CBDF6DAEC98
S214005F90ADE8780A00ADEA780C00AC06B804AC08A8
S214005FA0B806A80426F4BDF0A80661D8B126F6BD4A
S214005FB0F2DAECADF0780600ADF2780800A80646F6
S214005FC0F6A80461F846F461F3ECF15F00FAECEA37
S214005FD0ECADF0610902BA06ADF261D8A161090420
S214005FE0BA08ADE8B800ADEAB802ABBDF2DAF261C5
S214005FF0DAADEC040E00BDEC44A8BC61E8EC635FCF
S21400600000100861EFC4C2C061CFD761EFC1C361A1
S214006010CF2008D5B8BC61E8EC7661008FFAFF5C4B
S214006020809DF4AF30C5D4F461E8EC6B6000B80036
S214006030AF32C5B8028FD0FF9DF7AF8A01BDF48F8F
S214006040D0FF9DF65AF70161E8ECA460005AF6010D
S21400605061F8ECC56000A800040100B800A8026161
S214006060D8A1040000B802ECC16000B800AF32C589
S214006070B802AF8A01BDF4AF30C5B804AF32C5B8B8
S21400608006A804BDF6A806BDE8A80246E8A8006172
S214006090F846F661E8ECB96000ADF444FEFF61E84E
S2140060A0ECC56000A800040100B800A80261D8A1F1
S2140060B0040000B802ECC56000A804B800A806B842
S2140060C002C9F4FEFFA802315D9DEB8801708802CC
S2140060D0315D9DEAA800315DBDE8FBF8FFADE861E3
S2140060E0090000BDE8ADEA61D8A1610902BDEAADCC
S2140060F0EA315D9DEBD8E98DEA315D9DEAADE83188
S2140061005DBDE8ADE861090000BDE8ADEA61D8A173
S214006110610902BDEAADEA315D9807D8E98DEA313A
S2140061205D9806ADE8315DB804A80426E8B804A872
S2140061300661D8B126EAB806A804311DBDE8A8064F
S21400614061EEBDEAADE861090000BDE8ADEA61D8E0
S214006150A1610902BDEA30FEFF26F4BDF0F4F28D1F
S214006160F29DF3ADF006E8BDF4ADF261D8A106EA03
S214006170BDF6ECF76100FC365F00ADF2312D9DF701
S214006180D8F18DF2312D9DF6ADF0312DBDF4ADF484
S21400619006F0BDF4ADF661D8A106F2BDF6ADF63157
S2140061A02D9DF3D8F58DF6312D9DF2ADF4312DBD34
S2140061B0F0ADF406F0BDF4ADF661D8A106F2BDF67A
S2140061C0ADF6312D9DF3D8F58DF6312D9DF2ADF45B
S2140061D0312DBDF0ADF406F0BDF4ADF661D8A106E4
S2140061E0F2BDF6ADF6313D9DF7D8F58DF6313D9D05
S2140061F0F6ADF4313DBDF4ADF4BDF0ADF6BDF21034
S2140062000861EFC2C061CFD761EFC1C3C561CF20BF
S21400621004A80EBDEAA810BDECD5B9BC61E8EC67D1
S2140062206200FC0B6000ADF0BDE8ADEC440000ADD4
S214006230EA61F844000061F8EC736200FC0B600051
S214006240ADF026E844E70361E3EC2A6200ADEA0419
S214006250FFFFBDEAADEC61D8A104FFFFBDECADE8E1
S21400626004E803EC286200ADEAB800ADECB802FC26
S214006270345E00100461EFC4C2C061CFD761EFC1C5
S214006280C361CF200CD5B9BC61E8ECD76200FC0B2B
S2140062906000ADF0B808ADF2B80AA814B804F198DA
S2140062A0069807C9E80000ADE8BDEAA80646EAA8D1
S2140062B00461F846E861E3ECF26200FC0B6000FB68
S2140062C0F8FFADF0612908BDE8ADF261D8B16129EB
S2140062D00ABDEAECAB6200A814B80030E803B802C6
S2140062E0FC62CA01ADF0B800F19802F19803FC34E4
S2140062F05E00100C61EFC2C061CFD761EFC161CF05
S2140063002004880A9DF00C809DE84AF00E61E3ECBC
S2140063102B63008DF00CF09DF14AF10A61E3EC2B43
S21400632063004AE80161F3EC3364007150F000F555
S21400633030FF710AE7710BE3711AEF711AEB4AE846
S2140063400161E3EC6E63008FB7BC9DF14AF1016119
S214006350E8EC5D6300CF100040EC7163004AF10288
S21400636061E8EC6E6300CF100080EC716300F510FE
S214006370008FB9BC4C0361E8EC846300CF32FFE3C6
S214006380EC886300CF32FF208F9BAF9F11008FB643
S214006390BC9F12008DF09F31FF300500B800FC7DD9
S2140063A06200710A308FB9BC4C0361E8ECE163000F
S2140063B0710BE7712010008FB5BC9DF0D4F061E83A
S2140063C0ECD6630030FFFFB80030FFFFB802FC34A5
S2140063D05E00ECB7630071281000F5B5BCECFA63FC
S2140063E000E6B800FC7D6200717A308FE3FF5C0146
S2140063F09DF0D4F061F8ECEB6300AF1EFF4AE801B5
S21400640061F3EC1E6400710BE3717A308FE3FF5C7E
S214006410019DF0D4F061F8EC0C6400AF1EFF316E05
S214006420BDF0710AE7710BE3710B307158F000ECA8
S214006430376400C9F00000100461EFC061CFD7AF29
S214006440A8BC44000061F8EC516400BDF2DAF261C9
S214006450DAD7AFAABC44000061F8EC646400BDF271
S214006460DAF261DAD7E5B5BCD7AF30C5BDF0AF32EA
S214006470C5BDF2ADF0040100BDF0ADF261D8A104D7
S2140064800000BDF2ADF0BF30C5ADF2BF32C5D78F4C
S21400649036BC9DF4C9F01EBCADF04436BC61C8ECF9
S2140064A00D6500ADF0BDF6EAF6895C019DF2D4F20A
S2140064B061F8EC026500D4F461E8ECC76400DAF039
S2140064C0FAF08C05480100FAF08DF44E0161E8EC14
S2140064D0EE6400FAF0AC02BDF28C049DF57AF5FF8E
S2140064E0ADF2BDF6FAF68B5BF59BEC026500D4F4D4
S2140064F061E8EC026500FAF0AC02BDF6EAF6896ED9
S2140065000499ADF0040600BDF0EC9864008F36BC2C
S214006510819DF04AF0FF61F8EC2365009F36BCECE5
S214006520266500F536BCD761EFC1C361CF2002886F
S2140065300A9DF2880C9DEA4AF21861F3EC8D67001A
S2140065408DF20CF29DF04AF00761F3EC9365004A79
S214006550F21461E8EC60650071786E00EC936500FB
S2140065604AF21561E8EC71650071086C00EC936501
S214006570008F76009DF18DF20CF59DF0D4F161F858
S214006580EC8E65008DF14BF061E3EC9365008DF0C9
S2140065909F76008DF2500ED6044831BDE88DF2701D
S2140065A05100BDF404BABCBDF0BDF6EAF689D1616F
S2140065B0F8ECB266008DF2500ED6044831BDF2FA01
S2140065C0F28C029DF2ADF0BDF6DAF6F14800004A14
S2140065D0F2E061E8EC2A6600C9F00000ADF00106C2
S2140065E0F001BDF2041EBC14895C019DF6D4F66170
S2140065F0F8EC176600ADF2041EBC1489311A9DF63D
S214006600CDF700ADF646F461E8ECB26600ADF204F4
S2140066101EBC14895CFE99A6F0ADF044040061E847
S214006620ECDC65005106ECAC66004AF20461F8EC5E
S2140066308E66004AF20461F3EC5E66004AF202617E
S214006640F8EC8066004AF20261F3EC8766004AF2D4
S2140066500161E8ECB26600AF9201EC9F66004AF278
S2140066600661F8EC9C66004AF20661D8EC95660076
S2140066704AF20761E8ECB26600AF9E01EC9F660046
S214006680AF9401EC9F6600AF9601EC9F6600AF9852
S21400669001EC9F6600AF9A01EC9F6600AF9C01BDBF
S2140066A0F044098461E8ECB266008DF29800FC2F95
S2140066B05D004AEA0561F3EC8D67008DEA76E186B7
S2140066C096DD05311996DFFB9DF05C229DF1D4F135
S2140066D061E8EC4667005AF01D61F8EC8D6700FA39
S2140066E0E88B9DF2AC04BDF0FAF08DF261DD717BB3
S2140066F0FA6D9B61CDFAE8AC06BDF04AEA0261F895
S214006700EC0D67004AEA0461E8EC1E6700FAF08DBB
S214006710F261DD717BFA6D9B61CDEC2D6700FAF0BE
S2140067208DF27CFF61DD717BFA5D9B61CD8DEA0C9D
S214006730FD9DEAFAE8AC08BDF04AEA0161F3EC7E9A
S2140067406700EC6D6700FAE88B9DF2AC04BDF0FACA
S214006750F08DF27CFF61DD717BFA5D9B61CDFAE81E
S214006760AC0ABDF04AEA0561E8EC7E6700FAF08DF7
S214006770F261DD717BFA6D9B61CDEC8D6700FAF0FE
S2140067808DF27CFF61DD717BFA5D9B61CD1002614D
S214006790EFC2C061CFD761EFC161CF2004880A9DE8
S2140067A0F04AF00D61E3ECAE67000CF29DF04AF0A3
S2140067B00761F3EC1668008DF0705100044031BD9F
S2140067C0E8FAE88B9DF14AF11261F8ECE067004ABE
S2140067D0F11361E8ECE8670071006C00ECFC670000
S2140067E071706E00ECFC67008F76009DF28DF00CE9
S2140067F0F54BF261E3ECFC67009F76008DF00C0E23
S2140068009800F19802FC276500FAE88B9800FCFBDC
S2140068106200EC1A6800C9F00000100461EFC06165
S214006820CFD720048F9AAF4CFF61F8EC4A6800E19E
S2140068309800FC2F5D00FC0B5F0088089800F1981C
S21400684002FC27650051FF9F9AAF1004D788044CBE
S21400685019DE4F500ED612794C31164948315D7903
S214006860543161E8794E311688060CFF49493131BA
S214006870231931130B3103047181EF267191EF2236
S21400688031030471A1EF1B71B1EF1731130B310304
S2140068900471C1EF0D71D1EF0931030471E1EF020C
S2140068A071F1D72004AFB0BCBDF0AFB2BCBDF2AD45
S2140068B0F244FFFFADF061F844FFFF61F8ECDC68DE
S2140068C000AFAEBC46F2AFACBC61F846F061D8ECA7
S2140068D0DC68008F9AAF9800FC2268008F9AAF9D04
S2140068E0F14AF1FF61F8EC186900AFACBC04010096
S2140068F0BFACBCAFAEBC61D8A1040000BFAEBC8FBD
S214006900B4BC9DF07AF0018DF09FB4BC8DF1980078
S2140069108DF09802FC4D68001004D78FA8FF9FD317
S214006920BC717BFACF770009CFF50080FC89B900EF
S214006930FCE0B900717AFAD7FC2B5F00ADF044009A
S2140069400061E8EC576900FC224B00FCF44C00FCAC
S214006950565F00EC4B6900C9F00000D7EC5C69009C
S2140069608F9EFF5C109DF0D4F061F8EC8569007195
S214006970489EFFAFD6BC44000061F8EC856900BDB8
S214006980F2DAF261DA8F9EFF5C089DF0D4F061F8CF
S214006990ECAA690071389EFFAFD4BC44000061F8D1
S2140069A0ECAA6900BDF2DAF261DAD761EFC1C3C5BD
S2140069B061CF2002A80CBDECFC365F00DAECADF02F
S2140069C0780800ADF2780A00FAECABBDF0ADECB892
S2140069D000FAF0AC06BDF2FAF261FAADF04400003F
S2140069E071FF61C8EC1B6A00FC365F00FAECADF084
S2140069F0612908BDF0ADF261D8B161290ABDF2ACDB
S214006A0004BDE8AC06BDEAADF246EAADF061F84674
S214006A10E861D8ECC86900C9F0FFFF100261EFC456
S214006A20C2C061CFD7A804BDF0A806DAF07804008B
S214006A30A808780600D7202C300ADEB81430B648EE
S214006A40B816AEF8BDF0042C00B81830B26AB81A02
S214006A50ADF0B81C040800B800FCC7CD01A830B8DB
S214006A600030A632B80230FFFFB80AFC196D00A845
S214006A7032B800E6B80AFCAB69008834318FB80635
S214006A80ADF044000071FF61D8ECCE6A00A806465F
S214006A90F061F8ECCE6A00A830B8008DF09802E6F7
S214006AA0B80AFCD96D00A832B800FCAB6900EC80CF
S214006AB06A00A80CB804A830B800F6B80AFCE46B64
S214006AC000A804B80030FFFFB80AFC1FCF01AEF8DC
S214006AD0040800B800FCDECD01A830BDF0102CD7AD
S214006AE061EFC1C361CF200CA814BDE8A818BDEAA9
S214006AF0ADE844000071FF61C8EC166B00A816A153
S214006B00B804A816BDF0DAF0512D480000F626E8C5
S214006B10BDE8EC236B0044000061F8EC296B00A88C
S214006B2016B804A804EC416B00A816A1B806A8166F
S214006B30BDF6DAF65130480000ADF6B804EC836BCB
S214006B4000B808A1B80AB806ADE8B800ADEAB802C1
S214006B50FCDCCA01A808BDF4DAF4ADF004A73216CE
S214006B608B480000ADE8B800ADEAB802FC6ACA017E
S214006B70ADF0BDE844000061F8EC836B00A80AECB9
S214006B80416B00A806BDF6DAF6F1480000ADF6B196
S214006B90BDF0A80446F061C8ECBF6B00A804BDF4C5
S214006BA0FAF48B9DF2ADF0BDF6DAF64900009B8D47
S214006BB0F2480000ADF4A1B804B6F0EC926B00A861
S214006BC016BDF0100C61EFC2C061CFD72006A80A30
S214006BD0B800A80CB802880E705100B804FCE06A31
S214006BE0001006D72002A806BDF2FAF2ABB800FCE9
S214006BF051FB001002D761EFC161CF2002A808BD8B
S214006C00E8FAE8AB44000061F8EC136C00B800FC4E
S214006C1051FB00DAE8F6780000F6780400F6780211
S214006C2000100261EFC061CFD761EFC1C361CF2012
S214006C3004A80CBDE8A80EBDEAFAE8ABB800ADEAB9
S214006C40A1B802FC950601ADF044000061F8EC62C4
S214006C506C00DAE8780000ADEA780200E4F0EC6454
S214006C606C00F4F0100461EFC2C061CFD761EFC1D1
S214006C7061CF2004A80ABDE8A80CBDF0EAE8A94444
S214006C80000061F8EC926C00AA0246F061C8ECBE07
S214006C906C00ADE8B800ADF0B802FC296C00D4F08A
S214006CA061F8ECC06C00EAE8AA0444000061E8EC75
S214006CB0BE6C00FAE8ABBDF2DAF2F1480000E4F090
S214006CC0100461EFC061CFD761EFC1C361CF20046C
S214006CD0A80CBDE8A810BDEAADE8B800ADEAB80259
S214006CE0FC6D6C00D4F061E8ECF86C00ADE8B80020
S214006CF0FCF66B00EC0C6D00DAE8ADEA780400FAFE
S214006D00E8ABB800A80EB802FC651001ADE8BDF00F
S214006D10100461EFC2C061CFD761EFC1C361CF205D
S214006D2006A80EBDE8A810BDEADAE8F6780000F678
S214006D30780200F6780400F1480600ADEA44000048
S214006D4061F8EC5C6D00B800FC921001ADE8B8008C
S214006D50ADEAB802ADF0B804FCC86C00100661EFEE
S214006D60C2C061CFD761EFC1C3C561CF2004A80EF2
S214006D70BDECA810BDEAA812BDF0FAECAC04BDE864
S214006D80ADEA44000061E8EC916D00F4F0ECCF6DE4
S214006D9000ADF044000061F8ECCD6D0006E8BDE8FB
S214006DA0ADECB800ADE8B802FC6D6C00D4F061F84C
S214006DB0EC8B6D00EAECFAECA9610904B800ADEAC8
S214006DC0B802FC651001DAECADE8780400E4F010D7
S214006DD00461EFC4C2C061CFD72008880E9806F1C0
S214006DE09807A80CB800AEF804080004FEFFB80226
S214006DF0E6B804FC656D001008D761EFC161CF20CE
S214006E000AA810BDF4A812BDE8A814BDF0A816BDC7
S214006E10F2ADF044000061F8EC756E00ADE8440099
S214006E200061F8EC756E00FAF4AC04BDF6ADF246FF
S214006E30F661C8EC6F6E00ADF626F2B808ADF0B19C
S214006E40B806A80816A8064761E3EC526E00A80824
S214006E50B806ADE8B800ADF4BDF0EAF0A906F2B8A1
S214006E6002A806B804FC1D1101A80606E8BDE8DA6B
S214006E70E8F1480000100A61EFC061CFD7200A3061
S214006E80D8BCB800F19802F19804F19806F1980879
S214006E90FC6E5A00100AD7200A30DEBCB800F19803
S214006EA002F19804F19806F19808FC6E5A00100A50
S214006EB0D7200A30ECBCB800F19802F19804F1989B
S214006EC006F19808FC6E5A0030E4BCB800FC485A3C
S214006ED000100AD7200A30F2BCB800F19802F198E8
S214006EE004F19806F19808FC6E5A00100AD7200A9A
S214006EF030F8BCB800F19802F19804F19806F198C1
S214006F0008FC6E5A00100AD7200A30FEBCB800F102
S214006F109802F19804F19806F19808FC6E5A001051
S214006F200AD7200A3004BDB800F19802F19804F19F
S214006F309806F19808FC6E5A00100AD7A804BDF00F
S214006F40DAF0F1480600DAF0F1480700F1480800E8
S214006F50C9F20000ADF006F2BDF4DAF4F14809001B
S214006F60A6F2ADF244200061E8EC546F00DAF0F1CE
S214006F70482900F6782A00FAF0AC3644000061F89A
S214006F80EC8A6F00BDF2DAF261DAD72002C9F00AA5
S214006F90BDADF0BDF2DAF230EEB5780000F1480291
S214006FA000ADF0B800FC3C6F001002D7324BBDF1CC
S214006FB0480000F1480100F1480500F1480700309C
S214006FC00200780900F6780B00F1482300F6782DC9
S214006FD00030DE32782B00F1483000D788049F4A14
S214006FE0FF8FE1FF5C029DF0D4F061F8ECE16F00EA
S214006FF0711BE1D7200251FF9800FCDC6F008F4A1E
S214007000FF9DF01002D72004A808BDF0FAF08C040B
S2140070109800E19802FC4D68001004D72004A808E8
S214007020BDF0FAF08C049800F19802FC4D68001050
S21400703004D761EFC161CF2002A808BDE8EAE88A5C
S21400704006D161F8EC997000CF4AFFFFFAE8AC0869
S214007050BDF0DAE8A1780800ADF044000261F3EC78
S2140070607970008FE1FF5C029DF0D4F061F8EC636C
S2140070707000711BE1EC4870008FE1FF5C029DF030
S214007080D4F061F8EC797000711BE1ADE8B800FC53
S214007090067000DAE8F1480600100261EFC061CF22
S2140070A0D761EFC161CFFC365F00ADF0BDE8FCF400
S2140070B06F004AF0FF61F8ECD57000FC365F00AD5B
S2140070C0F026E8BDF0A80846F061F3ECAE7000F4D8
S2140070D0F0ECD77000E4F061EFC061CFD761EFC18C
S2140070E0C3C561CF200AA814BDE8A818BDEAA81A2F
S2140070F0BDECADE8B800FC327000ADE8B800FC1C92
S2140071007000ADE8B800302C01B802FCA170008811
S214007110166C409800FCDC6F00301800B804A80419
S214007120B806F198089809ADEABDF0ADECBDF2A836
S21400713006BDF4A808BDF6E8F4D3DD15ADF2311EA1
S214007140BDF28DF161FB9DF18DF061FB9DF093DF4B
S214007150EB8DF09800FCDC6F00A80404F8FFB80480
S21400716044F8FF61E8EC1E71008816D161F8EC81E6
S21400717071004C0861F8EC887100CDF0FFEC8B7163
S21400718000CDF095EC8B7100CDF0878DF09800FC6B
S214007190DC6F00F4EAFCF46F00DAE88DF0480B00D0
S2140071A0D171FF61C8ECB871004AEAFF61F8ECB82B
S2140071B07100A4EAEC957100100A61EFC4C2C061C8
S2140071C0CFD761EFC1C361CF2002A80ABDE8FC3665
S2140071D05F00ADF0BDEAFCF46F00DAE88DF0480B16
S2140071E0004AF0FF61E8EC037200FC365F00ADF089
S2140071F026EA442C0161E3ECD67100DAE8510FEC84
S2140072001072004AF0FE61F8EC217200DAE8510DC7
S214007210480500ADE8B800FC067000F4F0EC2372F8
S21400722000E4F0100261EFC2C061CFD761EFC1C3C6
S214007230C561CF2008A812BDE8A814BDF4A816BDE5
S214007240F6A81ABDEA44000061F8ECBC7300A81862
S21400725006EA44000261F3ECC27300EAE88A06D14B
S21400726061F8EC8C7200FAE8ABBDF0AC02BDF2AD92
S214007270F646F2ADF461F846F061E8EC8C7200FA7E
S214007280E8A81861490861C8ECF97200DAE8ADF4BC
S214007290780000ADF6780200EAE88A0C4C0361F844
S2140072A0ECB87200D8F58DF6311DBDF6ADF4311D83
S2140072B09DF6ADF4319DBDF4ADE8B80051119802CD
S2140072C0ADF4B804ADF6B806FCDD7000D4F061F895
S2140072D0ECDF7200DAE85103480500ECC27300AD3B
S2140072E0E8B800FCC27100D4F061F8ECC27300DAB2
S2140072F0E8F6780800E1480600CF4AFFFFA818160F
S214007300EAE8AA084761C8EC2C73008FE1FF5C022C
S2140073109DF0D4F061F8EC0B7300711BE1CF4AFFCF
S214007320FFEAE8AA08A1BA08ECFD7200ADEAB1BD12
S214007330F2C9F00000ADF046F261C8EC6D73008F44
S214007340E1FF5C029DF4D4F461F8EC3F7300711B1E
S214007350E18F4AFF9DF6A81C06F0BDECDAEC8DF630
S214007360480000CF4AFFFFA6F0EC3573008FE1FF20
S2140073705C029DF0D4F061F8EC6D7300711BE18F38
S2140073804AFF9DF0A81C06F2BDF4DAF48DF0480022
S21400739000FAE8AC0806EABDEADAE8780800EAE8A7
S2140073A08A0AD161F8ECB47300ADEA44FF0161E3E8
S2140073B0ECBC7300ADE8B800FC327000E4F0ECCC36
S2140073C07300ADE8B800FC067000F4F0100861EF3A
S2140073D0C4C2C061CFD7200CA810B800A812B8024B
S2140073E0A814B804F6B806300002B808A816B80AFA
S2140073F0FC2C7200100CD761EFC161CF2002A808E8
S214007400BDE8880A9F4AFFA80CBDF0040002BDF242
S2140074108FE1FF5C029DF4D4F461F8EC1074007107
S2140074201BE1FAF08B9F4AFF8FE1FF5C029DF4D4CC
S214007430F461F8EC287400711BE1FAF08C019F4AA5
S214007440FFA6F0A6F0ADF046F261E8EC1074008FEF
S214007450E1FF5C029DF0D4F061F8EC4F7400711B04
S214007460E151FF9800FCDC6F0051FF9800FCDC6FD8
S21400747000FCF46F00DAE88DF0480B005AF01F4A63
S214007480F00561F8EC9D7400DAE85111480500AD8E
S214007490E8B800FC067000F4F0EC9F7400E4F0100E
S2140074A00261EFC061CFD761EFC161CF2008A80E9F
S2140074B0BDE8A810BDF0A812BDF2ADF2440000ADC4
S2140074C0F061F844000061E8ECD47400DAE8511288
S2140074D0EC777500EAE88A0C4C0361F8ECF474006B
S2140074E0D8F18DF2311DBDF2ADF0311D9DF2ADF03B
S2140074F0319DBDF0ADE8B80051189802ADF0B80463
S214007500ADF2B806FCDD7000D4F061F8EC1875003A
S214007510DAE85104EC777500ADE8B80051FE980241
S214007520A814B804FCF77300D4F061F8EC7A750080
S214007530ADE8B800305802B802FCA17000D4F06183
S214007540E8EC4D7500DAE85115EC777500ADE8B853
S21400755000510D9802F6B804F6B806FCDD7000D4AB
S214007560F061E8EC737500FCF46F00D4F061F8ECA1
S214007570887500DAE85114480500ADE8B800FC0646
S2140075807000F4F0EC927500ADE8B800FC067000F0
S214007590E4F0100861EFC061CFD761EFC161CF2082
S2140075A008A80EBDE8FAE8AC1CB800E6B802F6B8C3
S2140075B004ADE8040600B806FCAB8000D4F061F821
S2140075C0ECF07500FAE8AC1A440000AC1861F84418
S2140075D0000061E8ECEE7500FAE8AC06DAE8781828
S2140075E000AC08781A00EAE88A046C809A04E4F092
S2140075F0100861EFC061CFD761EFC161CF2006A848
S2140076000CBDE8FAE8AC0EB800FAE8AC10B8028890
S2140076100E9804FC6B7D00D4F061F8EC317600FA2D
S214007620E88C12705100315D04A0BDBDF0EC3576DB
S21400763000C9F00000100661EFC061CFD761EFC14E
S214007640C3C561CF201EA828BDECA82ABDE8A82C7B
S214007650BDEAFAEC8C059DF4D4F461F8EC80760073
S214007660FAECAC14BDF0AC16BDF2ADEA46F2ADE8ED
S21400767061F846F061E3EC887600F4F0ECF1770010
S2140076808DF49DF0ECF177004AF40261F8ECEB77AC
S21400769000ADEA440000ADE861F844000061E8ECA3
S2140076A0BF7600DAECADE8780600ADEA780800AD03
S2140076B0E8780A00ADEA780C00E4F0ECF17700FA1E
S2140076C0ECAC0AB808AC0CB80AAC1CBDF0FAF08CEE
S2140076D00E705100040900B81CA80804FFFFBDF096
S2140076E0A80A61D8A104FFFFBDF2A81CB810F19843
S2140076F0129813A810BDF4A812BDF6E8F4D3DD1551
S214007700ADF2311EBDF28DF161FB9DF18DF061FB96
S2140077109DF093DFEBADE804FFFFB80CADEA61D84F
S214007720A104FFFFB80EA81CB81488139816881377
S2140077309817A814BDF4A816BDF6E8F4D3DD15A86E
S2140077400E311EB80E880D61FB980D880C61FB98F3
S2140077500C93DFEBA80E46F2A80C61F846F061D851
S214007760EC767700A80A440000A80861F8440000F8
S21400777061E8EC887700FAECAC18DAEC780600AC36
S2140077801A780800EC977700A80C26F0B80CA80E1C
S21400779061D8B126F2B80EA80CB818A80EB81AAD63
S2140077A0EC040600B810A81A440000A81861F844B3
S2140077B0000061F8ECEB7700FAECAC1CB800AC0605
S2140077C0B802AC08B804A810B806FCDD7D00A818FE
S2140077D004FFFFB818A81A61D8A104FFFFB81AD48E
S2140077E0F061E8ECA67700ECF17700DAECECAF7627
S2140077F000101E61EFC4C2C061CFD761EFC1C3C520
S21400780061CF2006A810BDECEAEC8A05D161F8EC41
S214007810B37800EAEC8A04D171FF61C8ECAB78005B
S214007820ADECB800E19802FCF87500ADF04400003D
S21400783061F8ECB37800EAEC8A054C0161F3EC5091
S2140078407800FAECAC14DAF0781C00AC16781E005F
S214007850FAECAC18BDE8AC1ABDEADAF0ADE8781A76
S21400786000ADEA781400AF96BDBDF244000061F8A2
S214007870ECA37800ADF0041800B800ADF0041600D4
S214007880B8028DF098058DF19804ADF2BDF4DAF4E7
S21400789061DA88059DF088049DF1FAF0AC18DAF0FC
S2140078A0781200EAEC8A045C7F9A04FCEA7C00EC1E
S2140078B0B57800F4F0100661EFC4C2C061CFD7619E
S2140078C0EFC1C3C561CF2042A84CBDECEAEC8A05E7
S2140078D04C0161E8EC257900FAEC8C049DF05C0222
S2140078E09DF1D4F161F8EC2579005AF00461F8ECCA
S2140078F03A7900FAECAC14BDF4AC16BDF6AC0C4606
S214007900F6AC0A61F846F461F8EC3A7900ADECB8EA
S21400791000ADF4B802ADF6B804FC3D7600D4F061D4
S214007920E8EC3A7900DAECE6780200F6B80EBDF03C
S214007930104261EFC4C2C061CFD7A850B818EC8916
S2140079407A00AC1CBDF0EAF08A04919DF2D8E98D6D
S214007950EA317D9DF4ADEA317D9DF5ADEA319EBDFF
S214007960F68DF25BF498168DE898148DE95C019814
S214007970158816D161F8ECA47A00A8141630000217
S21400798027B80CA818BDF2B81AA80C46F261C8ECC5
S214007990957900B81AFAECAC0604FEFFBDF4AC0804
S2140079A061D8A104FFFFBDF6AC1CBDF0FAF08C0E4A
S2140079B0705100B810F198129813A810BDF0A812D4
S2140079C0BDF28DF0D1DD1175ADF6DAF4311C61EE45
S2140079D095DFF9BDF613BDF4FAECAC1CBDF2FAF275
S2140079E0ADF4610910BDF4ADF661D8A1610912BD10
S2140079F0F68816982C8813982D982E982FFBF8FF4B
S214007A00ADF461092CBDF4ADF661D8A161092EBDB7
S214007A10F6A81A44000261E8EC867B00AF9EAF46EB
S214007A20F6AF9CAF61F846F461E8EC3A7A0030FFB6
S214007A30FFBF9CAF30FFFFBF9EAFAF9EBDB800AD8F
S214007A40F4B802ADF6B804A84EB806FCA77400D485
S214007A50F061F8EC257900A84E040002B84EA81A8A
S214007A6016A81827B818A81AB830F198329833FB19
S214007A70F8FFEAECDAECAA0A610930780A00AA0CE8
S214007A8061D8A1610932780C00FAECAC0ABDE8AC0A
S214007A900CBDEAA818FAEC44000061E8EC42790054
S214007AA0EC577C00A81444000061E8EC7A7900FAF0
S214007AB0ECAC06B81CAC08B81EA81E440000A81CF7
S214007AC061F844000061E8ECF47A00FAECAC18B80F
S214007AD020AC1AB822A822440000A82061F844006E
S214007AE00061F8EC627B00A820DAEC780600A82299
S214007AF0EC7F7B00ADF0B800A81CB802A81EB80446
S214007B00AEF804420004FCFFB806FCDD7D00D4F0AD
S214007B1061E8EC1C7B00A814EC2C7900A83EB82485
S214007B20A840B826FAECAC1CBDF0EAF08A1A4C1055
S214007B3061E8EC407B0030F8FFB828F6EC487B00A4
S214007B4030F8FFB82830FF0FB82AA828BDF2A82AB8
S214007B50BDF4A82646F4A82461F846F261D8EC766F
S214007B607B00ADECB800FC9A7500D4F061E8EC7AC6
S214007B707900EC257900A824DAEC780600A82678A7
S214007B800800EC7A7900A81444000061E8ECF57B64
S214007B9000FAECAC14B836AC16B838A836BDF0A867
S214007BA038BDF2AC0C46F2AC0A61F846F061D8EC8F
S214007BB0F57B008DF4980B8DF5980A8DF698098D57
S214007BC0F79808FCEA7C00880B9DF4880A9DF588E7
S214007BD0099DF688089DF7D4F061F8EC257900AD8C
S214007BE0F4BF9CAFADF6BF9EAF8F9CBD6C019F9C53
S214007BF0BDEC0C7C00ADF4B800ADF6B802E198041C
S214007C00FC6B7D00D4F061F8EC257900A81404A084
S214007C10BDB816A84EB834A81A16A81607BDF0A800
S214007C2016B80C46F061F8EC477C00A80CBDF2A82C
S214007C3034BDF4DAF2FAF48B480000ADF4A1B8349F
S214007C40ADF2A1EC217C00A81616A80C27BDF0A862
S214007C504E06F0EC5C7A00AC14B83AAC16B83CA809
S214007C603ABDF2A83CBDF4ADEA46F4ADE861F8468C
S214007C70F261E3EC877C00DAECADE8781400ADEA5C
S214007C80781600EC9E7C00AF96BD44000061F8ECD0
S214007C90A67C00A85044000061F8ECA67C00EAEC44
S214007CA08A046C809A04EAEC8A045C089DF0D4F09E
S214007CB061E8ECBC7C00A850EC2C7900ADECB80078
S214007CC0FCFB7700D4F061F8EC257900ECB67C007C
S214007CD02006A80AB800AEF8040A00040200B8029B
S214007CE0E6B804FCBF78001006D761EFC1C361CFC9
S214007CF02008D59CBD61F8EC607D00AF9EBDB80045
S214007D00AF9CAFB802AF9EAFB80430A0BDB806FCBB
S214007D10A77400D4F061F8EC627D00AF98BDBDE8B2
S214007D20AF9ABDBDEAADEA440000ADE861F8440094
S214007D300061F8EC5D7D00AF9EBDB800ADE8B8020E
S214007D40ADEAB80430A0BDB806FCA77400D4F06154
S214007D50F8EC627D00F6BF98BDF6BF9ABDF59CBDF7
S214007D60E4F0100861EFC2C061CFD761EFC1C36114
S214007D70CF2008A810BDE8A812BDEAAF9EAF46EA1D
S214007D80AF9CAF61F846E861F8ECC77D00FCEA7C82
S214007D9000D4F061E8EC9F7D00F4F0ECD47D00AFF9
S214007DA09EBDB800ADE8B802ADEAB80430A0BDB8D4
S214007DB006FCD67300D4F061F8EC997D00ADE8BF00
S214007DC09CAFADEABF9EAF8814768F9CBD616E9F58
S214007DD09CBDE4F0100861EFC2C061CFD761EFC16F
S214007DE0C3C561CF201AA826B80EA828B810A82A9E
S214007DF0BDECA824BDF2FAF2AC0A040100B806AC49
S214007E000C61D8A1040000B808A806BDF0A808BDFB
S214007E10F2A81046F2A80E61F846F061E3EC277E61
S214007E2000F4F0EC387F00A824BDF2FAF2AC16B8E5
S214007E3012A824BDF2FAF2AC18B814A824BDF2EACF
S214007E40F28A1A4C1061E8EC5C7E00880F7088108D
S214007E50BDF0A810318EBDF2EC717E00A80E311D6B
S214007E609DF0880F708810311D9DF1A810317EBDE1
S214007E70F2FBF8FFADF0610912B806ADF261D8A1C9
S214007E80610914B808AF9CAFB816AF9EAFB818A873
S214007E9016BDF0A818BDF2A80846F2A80661F84676
S214007EA0F061E8ECD77E00A824BDF2EAF28A1A4C0C
S214007EB01061E8EC027F00880E9DE8F4E98DE99DEC
S214007EC0EBADE80104A0BD16ABDAEC7800008DEB54
S214007ED0480200EC337F00A806B800A808B802F1F4
S214007EE098048DF4980D8DF5980C8DF6980B8DF7FB
S214007EF0980AFC6B7D00D4F061E8ECA77E00EC21CC
S214007F007E00880E5C7F9DF4F4F5ADF4312D04A060
S214007F10BDBDF4BDF0DAECEAF0895CFF480000EA8B
S214007F20F48A015CFF4801008A025CFF4802008A6E
S214007F30035C0F480300E4F0101A61EFC4C2C0618E
S214007F40CFD761EFC1C3C561CF201EA828BDECA85E
S214007F502AB80AA82CB80CA82EB812A830B814A8AC
S214007F600C440000A80A61F844010061E3EC9F801D
S214007F7000FAECAC0A040100BDF0AC0C61D8A10418
S214007F800000BDF2A80C46F2A80A61F846F061F3BC
S214007F90EC9F8000FAECAC16B816AC18B818EAECF1
S214007FA08A1A4C1061E8ECBB7F00880B70880CBD09
S214007FB0F0A80C318EBDF2ECD07F00A80A311D9DD2
S214007FC0F0880B70880C311D9DF1A80C317EBDF237
S214007FD0FBF8FFADF0610916B80EADF261D8A161ED
S214007FE00918B810AF9CAFB81AAF9EAFB81CA81A45
